:100000000C947C030C94A4030C94A4030C94A403FC
:100010000C94A4030C94A4030C94A4030C94A403C4
:100020000C94A4030C94A4030C943F070C94B10704
:100030000C94A4030C94A4030C94A4030C94A403A4
:100040000C94A4030C94A4030C94A4030C94A40394
:100050000C94A4030C94A4030C94A4030C94720AAF
:100060000C94A4030C94A4030C94A4030C94A40374
:100070000C94A4030C94A4030C94A4030C94A40364
:100080000C94A4030C94A4030C94A4030C94A40354
:100090000C94A4030C94A4030C94A4030C94A40344
:1000A0000C94A4030C94A4030C94A403F0F89C8E69
:1000B0008783878E9CF8F00000FEFF030303030391
:1000C000070EFCF80000FEFF0303030303070EFC0A
:1000D000F80000FFFF00000000000000FFFF00002C
:1000E000FEFF8383838383C7EE7C380000F8FC0E19
:1000F00007030303070EFCF800003F7FE0C0808089
:10010000C0E07F3FFFFF01010101010101FFFF008E
:1001100000FFFF0C0C0C0C1C3E77E3C100007FFFBE
:10012000C0C0C0C0C0E0703F1F00001F3F70E0C0F3
:10013000C0C0E0703F1F00007FFFC1C1C1C1C1E36B
:10014000773E1C00001F3F70E0C0C0C0E0703F1F42
:10015000000000000001FFFF01000000D5F08D1439
:10016000A1C881CFD9F1AF2000033F7FC4C47F3F36
:10017000031EF979EFEF79F91E080B000202020164
:10018000000904000001020200000524001001051E
:10019000240101010424020605240600010705814B
:1001A0000310004009040100020A000000070502D4
:1001B0000240000007058302400000040309041206
:1001C000010002EF020140412336800001010203D9
:1001D0000141726475696E6F204C4C43004172643A
:1001E00075696E6F204C656F6E6172646F00000000
:1001F0000000003E5B4F5B3E3E6B4F6B3E1C3E7C07
:100200003E1C183C7E3C181C577D571C1C5E7F5EB4
:100210001C00183C1800FFE7C3E7FF001824180073
:10022000FFE7DBE7FF30483A060E2629792926400A
:100230007F050507407F05253F5A3CE73C5A7F3E36
:100240001C1C08081C1C3E7F14227F22145F5F00C8
:100250005F5F06097F017F006689956A6060606064
:100260006094A2FFA29408047E040810207E20104F
:1002700008082A1C08081C2A08081E101010100C58
:100280001E0C1E0C30383E3830060E3E0E060000A6
:1002900000000000005F00000007000700147F144A
:1002A0007F14242A7F2A12231308646236495620B9
:1002B000500008070300001C2241000041221C00DE
:1002C0002A1C7F1C2A08083E08080080703000089D
:1002D00008080808000060600020100804023E5171
:1002E00049453E00427F4000724949494621414903
:1002F0004D331814127F1027454545393C4A49496A
:100300003141211109073649494936464949291ED3
:1003100000001400000040340000000814224114C2
:1003200014141414004122140802015909063E4114
:100330005D594E7C1211127C7F494949363E41413C
:1003400041227F4141413E7F494949417F09090995
:10035000013E414151737F0808087F00417F410001
:100360002040413F017F081422417F404040407FB0
:10037000021C027F7F0408107F3E4141413E7F09FD
:100380000909063E4151215E7F091929462649493E
:10039000493203017F01033F4040403F1F2040207E
:1003A0001F3F4038403F631408146303047804037C
:1003B0006159494D43007F4141410204081020002A
:1003C0004141417F0402010204404040404000039B
:1003D00007080020545478407F2844443838444467
:1003E0004428384444287F385454541800087E095F
:1003F0000218A4A49C787F0804047800447D40007F
:100400002040403D007F1028440000417F40007C98
:10041000047804787C080404783844444438FC1890
:1004200024241818242418FC7C0804040848545474
:10043000542404043F44243C4040207C1C204020A1
:100440001C3C4030403C44281028444C9090907C08
:100450004464544C4400083641000000770000001A
:100460004136080002010204023C2623263C1EA15C
:10047000A161123A4040207A3854545559215555BB
:10048000794121545478412155547840205455796C
:10049000400C1E52721239555555593954545459FD
:1004A00039555454580000457C410002457D4200B6
:1004B00001457C40F0292429F0F0282528F07C54BF
:1004C0005545002054547C547C0A097F49324949DF
:1004D00049323248484832324A4848303A4141214C
:1004E0007A3A42402078009DA0A07D3944444439A6
:1004F0003D4040403D3C24FF2424487E4943662B38
:100500002FFC2F2BFF0929F620C0887E09032054D9
:100510005479410000447D413048484A32384040D7
:10052000227A007A0A0A727D0D19317D2629292F37
:1005300028262929292630484D402038080808084F
:1005400008080808382F10C8ACBA2F102834FA0051
:10055000007B000008142A142222142A1408950093
:10056000220095AA005500AAAA55AA55AA00000083
:10057000FF00101010FF00141414FF001010FF00F3
:10058000FF1010F010F0141414FC001414F700FF06
:100590000000FF00FF1414F404FC141417101F10C3
:1005A000101F101F1414141F00101010F000000072
:1005B000001F101010101F10101010F0100000007D
:1005C000FF101010101010101010FF10000000FF8E
:1005D000140000FF00FF00001F10170000FC04F4CF
:1005E00014141710171414F404F40000FF00F71487
:1005F000141414141414F700F7141414171410100E
:100600001F101F141414F4141010F010F000001F29
:10061000101F0000001F14000000FC140000F01068
:10062000F01010FF10FF141414FF141010101F000E
:10063000000000F010FFFFFFFFFFF0F0F0F0F0FF10
:10064000FFFF0000000000FFFF0F0F0F0F0F3844E7
:100650004438447C2A2A3E147E02020606027E02A8
:100660007E0263554941633844443C04407E201E69
:100670002006027E020299A5E7A5991C2A492A1C98
:100680004C7201724C304A4D4D303048784830BC85
:10069000625A463D3E494949007E0101017E2A2AAF
:1006A0002A2A2A44445F444440514A444040444A30
:1006B00051400000FF0103E080FF000008086B6B61
:1006C000083612362436060F090F060000181800E7
:1006D00000001010003040FF0101001F01011E004A
:1006E000191D1712003C3C3C3C00000000000102B8
:1006F0000408102040803C1011241FBECFEFDAE028
:10070000DEBFCDBF11E0A0E0B1E0EEE6F2E202C054
:1007100005900D92A034B107D9F725E0A0E4B1E02F
:1007200001C01D92AC3DB207E1F713E0CCE7D3E086
:1007300004C02197FE010E942A11CB37D107C9F7C7
:100740000E94F40B0C9435110C940000FC01809174
:100750005601811103C08FEF9FEF08959FB7F89462
:1007600082E08093E9002091F20030E01216130637
:1007700014F421E030E02115310559F0289884E681
:10078000809355018091F10080838091F20088234D
:1007900019F09FBFC90108958BE68093E800F9CF57
:1007A0002FB7F89483E08093E9009091E800892FB7
:1007B000807295FF04C09091F20080E4891B2FBFE6
:1007C0000895CF93DF931F92CDB7DEB76983DC0125
:1007D000ED91FC910280F381E02D41E050E0BE01FB
:1007E0006F5F7F4F09950F90DF91CF91089583E060
:1007F0008093E9008091F200882319F08AE38093C6
:10080000E80008950E94D00390E00895CF93DF930D
:100810001F92CDB7DEB7FC018485958597FD05C095
:100820002FEF3FEF358724870BC0CE0101960E9442
:10083000A603019719F4898190E002C08FEF9FEF22
:100840000F90DF91CF9108950F931F93CF93DF9374
:100850001F92CDB7DEB78C01FC018485958597FF8B
:100860000EC0CE0101960E94A603019719F42981BA
:1008700030E002C02FEF3FEFF80135872487F80101
:10088000848595850F90DF91CF911F910F910895E9
:10089000FC018485958597FD0BC09FB7F89482E095
:1008A0008093E9008091F2009FBF90E00196089547
:1008B0009FB7F89482E08093E9008091F2009FBF97
:1008C00090E008958F929F92AF92BF920F931F93E3
:1008D000CF93DF93CDB7DEB7A1970FB6F894DEBF05
:1008E0000FBECDBF19A2423008F44AE08E010F5D61
:1008F0001F4F842E912CA12CB12CA50194010E9494
:100900000811E62FB901CA0101501109EA3014F4A7
:10091000E05D01C0E95CD801EC93232B242B252B4F
:1009200061F70115110571F0F80101900020E9F758
:100930003197AF01401B510BB80187E595E00E944C
:10094000E10902C080E090E0A1960FB6F894DEBF06
:100950000FBECDBFDF91CF911F910F91BF90AF9090
:100960009F908F9008958F929F92AF92BF92CF9257
:10097000DF92EF92FF920F931F93CF93DF935C016F
:100980006B017A0180910B01882309F45BC080918F
:100990005601882309F456C08091540180FF05C098
:1009A0008091E00082608093E000E70110E00AEFB0
:1009B00083E0882E9AE3992E2097D9F10E94D003E4
:1009C00081110AC0015009F43DC061E070E080E08F
:1009D00090E00E94380AF0CF282F30E0C217D307EA
:1009E0000CF48C2F4FB7F8948092E9009091E800B6
:1009F00095FF1DC0282F30E0C21BD30BF601982FA6
:100A0000915020F081918093F100FACFC20ED31E55
:100A1000112319F09092E80009C08091E80085FD4B
:100A200006C09092E80011E0209709F010E04FBF57
:100A3000C3CF1111C3CF5D9884E6809353011E1478
:100A40001F0444F081E090E0F5019383828380E00D
:100A500090E001C0C701DF91CF911F910F91FF90EE
:100A6000EF90DF90CF90BF90AF909F908F900895C0
:100A7000809157018EBDE8E5F1E081910DB407FE4C
:100A8000FDCF8EBD85E0E735F807B9F70DB407FE59
:100A9000FDCF089580E0E7E5F1E081118FEF0024BC
:100AA00081938193819381930394D1F70895209149
:100AB0006105282329F490916005982381E009F4C9
:100AC00080E00895CF92DF92EF92FF92CF93DF9371
:100AD0006C01990FEE08FF08F7FE1FC0E091570563
:100AE000F09158050190F081E02D6DE287E595E0E9
:100AF0000995EC0166277727CB016C197D098E09D2
:100B00009F094AE00E9462048C0F9D1FDF91CF91E4
:100B1000FF90EF90DF90CF9008954AE0C701B601B3
:100B2000DF91CF91FF90EF90DF90CF900C94620413
:100B30002F923F924F925F926F927F928F929F92ED
:100B4000AF92BF92CF92DF92EF92FF920F931F93DB
:100B5000CF93DF93CDB7DEB728970FB6F894DEBFFB
:100B60000FBECDBF5A01822E912C9C01280D391D3C
:100B700037FDC4C0803891050CF0C0C09B01200F28
:100B8000311D37FDBBC0603471050CF0B7C0AB013F
:100B900077FF04C044275527461B570B477055273E
:100BA0009B0177FF02C0295F3F4FE3E03595279512
:100BB000EA95E1F777FF08C02150310968E070E05D
:100BC000DB01A41BB50BAD01602F6695669566959C
:100BD00070E0077011F06F5F7F4FDB01A20FB31F52
:100BE000BA83A98339017694762C66247794679426
:100BF000680E791EE12CF12C00E010E02301B0E832
:100C00004B0E511C68E070E0DB01A41BB50BBC83EC
:100C1000AB8369817A812617370709F46FC02830C2
:100C2000310509F46BC02F3FBFEF3B070CF45BC0ED
:100C3000B201600F711FDB01A95ABE4FBE83AD83A5
:100C4000D801A60DB71DA95ABE4F6C0160E070E037
:100C5000681579050CF047C0E0E8CE16D10409F418
:100C600042C0D7FC34C02F3FFFEF3F0709F442C01A
:100C7000FB01EE0DFF1DEA0DFB1DE491042E01C0EA
:100C8000EE0F0A94EAF73C90E329EC9341155105E5
:100C9000F1F027303105D9F0FB01EE0DFF1DEA0D13
:100CA000FB1DE4912E2E312CF1010B8002C0F59535
:100CB000E7950A94E2F7F887EF83ED81FE813080B3
:100CC000EF81F885E3291F01ED81FE8120826F5FAE
:100CD0007F4FED81FE813196FE83ED83FFEFCF1ACA
:100CE000DF0A1196B5CF2F5F3F4F00581F4FE80C1A
:100CF000F91C8FCF4115510579F6E9CF28960FB62B
:100D0000F894DEBF0FBECDBFDF91CF911F910F9141
:100D1000FF90EF90DF90CF90BF90AF909F908F901B
:100D20007F906F905F904F903F902F9008958091AB
:100D3000790581110DC082E08093750584E0809370
:100D40007605109278051092770581E080937905F9
:100D500085E795E008954091D5055091D6052091FD
:100D6000D3053091D40542175307B4F49091E800AD
:100D70009570E1F39091E80092FD19C08093F10025
:100D80008091D5059091D60501968F739927892B6F
:100D900019F48EEF8093E8008091D5059091D605E7
:100DA00001969093D6058093D50581E0089580E063
:100DB0000895DF92EF92FF920F931F93CF93DF93EB
:100DC000D82E8A017B01E40EF51EEB01CE15DF055E
:100DD00071F0D7FE03C0FE01849101C088810E949A
:100DE000AB0621968111F2CF8FEF9FEF01C0C801B2
:100DF000DF91CF911F910F91FF90EF90DF900895B9
:100E0000615030F02091F100FC0120830196F8CF71
:100E1000289884E68093550108950F931F93CF93EC
:100E2000DF931F92CDB7DEB782E0898342E450E0C2
:100E300069E771E080E80E94D9060E949706DC010C
:100E400012960D911C9113970115110569F0D801A7
:100E5000ED91FC910280F381E02DBE016F5F7F4F29
:100E6000C801099597FF07C089810F90DF91CF9145
:100E70001F910F910895F80100851185E5CF1F920C
:100E80000F920FB60F9211248F939F938091E100E0
:100E90009091E100937F9093E10083FF0FC0109247
:100EA000E90091E09093EB001092EC0092E39093B4
:100EB000ED001092560198E09093F00082FF20C060
:100EC00093E09093E9009091F200992319F09AE34E
:100ED0009093E80090915301992339F09091530138
:100EE000915090935301992389F190915501992341
:100EF00039F090915501915090935501992341F10A
:100F000084FF10C08091E2008E7E81608093E200B9
:100F10008091E1008F7E8093E100809154018E7E6C
:100F2000806111C080FF16C08091E2008E7E8061DA
:100F30008093E2008091E1008E7E8093E1008091B9
:100F400054018E7E81608093540104C05D9ACDCFA0
:100F5000289AD6CF9F918F910F900FBE0F901F9020
:100F600018951F920F920FB60F921124CF92DF9215
:100F7000EF92FF920F931F932F933F934F935F93A3
:100F80006F937F938F939F93AF93BF93EF93FF9351
:100F9000CF93DF93CDB7DEB76C97DEBFCDBF109296
:100FA000E9008091E80083FFEDC168E0CE0145963D
:100FB0000E94000782EF8093E8008D8987FF05C0BB
:100FC0009091E80090FFFCCF03C09EEF9093E80063
:100FD000982F907609F0C6C09E892F89188D91119F
:100FE0000CC0803829F48091D2058093F10002C0B2
:100FF0001092F1001092F10048C1422F50E0512BA5
:10100000913051F4811141C14130510509F03DC188
:101010008091D2058D7F0BC0933061F4811135C171
:101020004130510509F031C18091D2058260809331
:10103000D2052BC1953041F48091E80080FFFCCFB0
:1010400020682093E30021C1963009F05FC0EB8C4B
:10105000FC8C1092E9001092D6051092D505123042
:1010600091F51092D4051092D3050E940D0799E0D6
:10107000BE016F5F7F4FDB01E92F1D92EA95E9F713
:1010800099831A8391E09E8390EA98879AEF9987D3
:101090002091D5053091D605275F3F4F3C832B83A8
:1010A0008D831092E9001092D6051092D505F0922A
:1010B000D405E092D30549E050E080E00E94D906D3
:1010C0000E940D07E2C0F092D405E092D3050E9481
:1010D0009706DC011296ED90FC901397E114F10451
:1010E00009F4C0C0D701ED91FC910480F581E02D99
:1010F000BE016B5E7F4FC7010995009719F00CF098
:10110000C4C0C7C0F701E084F184E8CF973009F488
:10111000C0C0983021F481E08093F100B6C09930CE
:1011200009F0B3C0837009F0B4C0E7E3F1E081E0F7
:1011300021E036E39081992361F08093E9002093C8
:10114000EB0091919093EC003093ED008F5F87302E
:1011500089F78EE78093EA001092EA008F898093E6
:10116000560193C08B8D9C8D1092E9001092D6058C
:101170001092D5059093D4058093D305898D811164
:1011800056C08E899D89913A59F4813209F081C007
:1011900047E050E064E071E080E00E94D90675C04D
:1011A000913209F076C0833289F4888D90E0982FCF
:1011B00088272F89822BA0E0B0E080930C019093C8
:1011C0000D01A0930E01B0930F015FC0803269F44E
:1011D0008091E80082FFFCCF67E084E091E00E940C
:1011E00000078BEF8093E80006C0823209F04DC003
:1011F0008F8980930B018091D105882319F0EEEF40
:10120000FAE002C0E0E0F8E080910401909105016D
:10121000A0910601B0910701803B9440A105B10562
:1012200009F07BC080910B0180FF93C076C00E94C3
:101230009706DC0112960D911C911397011511056B
:1012400041F1D801ED91FC910190F081E02DBE01BA
:101250006B5E7F4FC8010995811117C0F8010085A9
:101260001185ECCF113009F44EC0133091F48F8901
:10127000882309F445C0823081F440E860E18DEDB7
:1012800091E00E947110882321F08EEF8093E80096
:1012900079C081E28093EB0075C0813029F440E889
:1012A0006BE081ED91E0EDCF833099F70E949706D6
:1012B000DC011296ED90FC9013978E010F5F1F4F8B
:1012C0006801E114F10479F0D701ED91FC910680F9
:1012D000F781E02DB801C7010995080F111DF7012D
:1012E000E084F184EECFD8011C92F6010190002039
:1012F000E9F73197BF016C197D0940E0C601C1CF04
:101300006BEB71E002C06FEB71E06115710509F2E2
:10131000FB01449150E080E840CF0FB6F894A895C7
:1013200080916000886180936000109260000FBE21
:10133000A895EE3F2AE0F20739F08091FE0A9091DD
:10134000FF0A91838083A1CF1092FF0A1092FE0AB8
:101350009CCFEE3F8AE0F80731F080819181909335
:10136000FF0A8093FE0A87E797E7918380839BE0DB
:1013700088E10FB6F894A895809360000FBE909313
:10138000600083CF6C960FB6F894DEBF0FBECDBF62
:10139000DF91CF91FF91EF91BF91AF919F918F918D
:1013A0007F916F915F914F913F912F911F910F917D
:1013B000FF90EF90DF90CF900F900FBE0F901F9097
:1013C0001895CF92DF92EF92FF920F931F93CF93D6
:1013D000DF936C017A018B01C0E0D0E0CE15DF0510
:1013E00089F0D8016D918D01D601ED91FC910190AC
:1013F000F081E02DC6010995892B11F47E0102C010
:101400002196ECCFC701DF91CF911F910F91FF90F3
:10141000EF90DF90CF9008953FB7F8948091D80572
:101420009091D905A091DA05B091DB0526B5A89B6E
:1014300005C02F3F19F00196A11DB11D3FBFBA2F66
:10144000A92F982F8827820F911DA11DB11DBC01C6
:10145000CD0142E0660F771F881F991F4A95D1F78B
:1014600008950895089580E090E008950E94301155
:101470008F929F92AF92BF92CF92DF92EF92FF92A4
:101480006B017C010E940C0A4B015C01C114D10468
:10149000E104F104F1F00E940C0ADC01CB0188198F
:1014A0009909AA09BB09883E9340A105B10570F3CB
:1014B00021E0C21AD108E108F10888EE880E83E025
:1014C000981EA11CB11CC114D104E104F10419F748
:1014D000DDCFFF90EF90DF90CF90BF90AF909F90C7
:1014E0008F9008951F920F920FB60F9211242F9391
:1014F0003F938F939F93AF93BF93809140019091BF
:101500004101A0914201B09143013091D70523E000
:10151000230F2D3720F40196A11DB11D05C026E82B
:10152000230F0296A11DB11D2093D7058093400182
:1015300090934101A0934201B09343018091D8055B
:101540009091D905A091DA05B091DB050196A11D16
:10155000B11D8093D8059093D905A093DA05B09377
:10156000DB05BF91AF919F918F913F912F910F908C
:101570000FBE0F901F9018952D9A0895BC0180E022
:1015800090E00C94380A8FB12CB193B130E02095E3
:10159000309520743327A90123E0559547952A9566
:1015A000E1F7292F30E020953095207133273595CC
:1015B000279535952795242B8095807F822B08953C
:1015C00083B7817F83BF83B7816083BF889583B7EB
:1015D0008E7F83BF08958EBD00000DB407FEFDCF42
:1015E0000895EEEEF6E090E1969FD001A0781124E8
:1015F000A80F6770E60FF11D9491A95ABE4F4423BE
:1016000019F08C91982B03C090958C9198239C9302
:1016100008952F923F924F925F926F927F928F9296
:101620009F92AF92BF92CF92DF92EF92FF920F9371
:101630001F93CF93DF93CDB7DEB727970FB6F894FC
:10164000DEBF0FBECDBFFC016A3069F4248D808DF2
:10165000918D38E0239F800D911D1124918F808FF3
:10166000178A168AA6C06D3009F4A3C09F838E83A3
:10167000348C238D2983328D3A83608C718CE6887B
:10168000F78880E8E816F104C4F0AE81BF815C966B
:101690002C915C97422F50E056968D919C915797D4
:1016A000B6E02B9F800D911D1124EE81FF81978B59
:1016B000868B258D211167C07CC0F0E46F16710404
:1016C00024F7C70125E0329E800D911D11241816C4
:1016D0001906DCF6432C512CC30138E0339E800DF3
:1016E000911D11241816190684F685E0689F800163
:1016F000112402511E4F20E0F8012490253009F4F6
:10170000212C430158E020FC02C0398101C03A81FC
:1017100031110BC0F9818A81F81307C0269451500A
:10172000840C951C5111EFCF25C067018C2D8E19AB
:101730008315A0F754018A2D88198315B8F490E811
:10174000C916D10478F4A0E4AA16B10458F4432FC2
:10175000B501C6012C833B835D830E94F10A5D8144
:101760003B812C81BFEFAB1ABB0AE5CFEFEFCE1A5E
:10177000DE0ADCCF2F5FE40CF51C0F5F1F4F263015
:1017800009F0BACF82CF6AEF64039001659F300DF4
:10179000112420583F4F281739075CF4AE81BF81D0
:1017A000ED91FC9111970190F081E02D6AE0CD015F
:1017B000099581E090E027960FB6F894DEBF0FBE42
:1017C000CDBFDF91CF911F910F91FF90EF90DF90F0
:1017D000CF90BF90AF909F908F907F906F905F90D1
:1017E0004F903F902F900895789484B5826084BD87
:1017F00084B5816084BD85B5826085BD85B5816015
:1018000085BD80916E00816080936E001092810092
:10181000809181008260809381008091810081604D
:10182000809381008091800081608093800080910E
:1018300091008260809391008091910081608093FB
:101840009100809190008160809390008091C10010
:1018500084608093C1008091C10082608093C10048
:101860008091C10081608093C1008091C30081603C
:101870008093C3008091C00082608093C0008091FB
:10188000C20081608093C20080917A00846080935E
:101890007A0080917A00826080937A0080917A0049
:1018A000816080937A0080917A00806880937A00CA
:1018B000109256011092D205109254018091D700D7
:1018C00081608093D70080EA8093D80089B58061D9
:1018D00089BD89B5826089BD09B400FEFDCF61E094
:1018E00070E080E090E00E94380A8091D8008F7C00
:1018F00080618093D8008091E000807F8093E00039
:101900008091E1008E7E8093E1008DE08093E20083
:10191000559A209AEEEFFFE7859194918B3F9C4D6D
:1019200019F481E08093D10581EC80937C0085B12E
:10193000806F85B9249884B1866E84B95E9A5F9869
:101940008AB1806D8AB9769A6E9881B3806F81BBB7
:10195000899880B38D7080BB80E58CBD81E08DBDA2
:1019600085E090E00E94BE0A5F9A85E090E00E94C8
:10197000BE0A5E985C98CCE5D1E01C2F135FFE0197
:1019800084910E94EB0A21961C13F9CF5C9A81E89E
:101990008093640081E080936500C0E0D4E080E043
:1019A0000E94EB0A2197D9F70E94C30A87FF1FC044
:1019B0005C9885EA0E94EB0A5C9A2E982F982D98E5
:1019C000809164008062809364000E94E00AFDCFF1
:1019D0002D980E94C30A8478843871F00E94C30A4B
:1019E0008471843131F188EC90E00E94BE0A0E943B
:1019F000C30A82FDEDCF3AC00E94BC0A88EC90E099
:101A00000E94BE0A2F9882E090E00E94F2108F3F61
:101A100029F06FEF82E090E00E94FA1084EF91E0ED
:101A20000E94BE0A2F9A0E94C30A84788438D9F390
:101A3000D5CF0E94BC0A88EC90E00E94BE0A2E9886
:101A400082E090E00E94F210882329F060E082E0BA
:101A500090E00E94FA1084EF91E00E94BE0A2E9A54
:101A60000E94C30A84718431D9F3BDCF0E94BC0A9D
:101A700082E090E00E94F210882331F03E9A3F9A73
:101A800081E08093440104C0109244013E983F9845
:101A90002E98CEEEDFEF0E94C30A86FF04C02E9A76
:101AA0002F9A2D9A39C0CC3F2FEFD20719F42E9AD6
:101AB0002F9805C0C831D10511F42F9A2D980E9496
:101AC0004A0500E128E54CEA50E0BE0184E190E0DF
:101AD0000E9498050E9438058BE190E00E94BE0AA2
:101AE000C03F8FEFD80721F48AEF90E00E94BE0A32
:101AF0002196C931D10579F68CEB92E00E94BE0A9D
:101B00000E94BC0AE0915B05F0915C050190F081B8
:101B1000E02D8BE595E0099582E390E00E94BE0AF6
:101B20000E94C30A8111F8CF81E28093620546E1E9
:101B3000842E912C87ED93E057E3252E280E8FE11C
:101B400094E067E3362E380E7FE5672E712CCFE2E6
:101B5000D0E083E6E82EF12C94E1C92ED12CAA2402
:101B6000AA94BA2C30E0432E30E0532E2FB7F894CD
:101B70008091400190914101A0914201B0914301B7
:101B80002FBF40916705509168056091690570917C
:101B90006A0520916B05222341F020916305821B89
:101BA00080936C0510926B05DDC184179507A6071D
:101BB000B70738F4481B423008F4D4C10E94E00A49
:101BC000D1C121E020936B05809363059093640558
:101BD000A0936505B093660520916205820F911D63
:101BE000A11DB11D8093670590936805A0936905B9
:101BF000B0936A0580915E0590915F050196909380
:101C00005F0580935E050E944A0510927005109250
:101C10006F0510926E0510926D058091600580939E
:101C200061050E94C30A8093600580E80E94570501
:101C3000882351F08091510190915201009709F44D
:101C400098C1019709F49FC180E10E94570588233C
:101C500051F08091510190915201009709F49DC17A
:101C6000019709F4A4C180E20E945705882321F05E
:101C7000109252011092510180E40E94570588236E
:101C800031F081E090E0909352018093510188E01F
:101C90000E945705882351F084E00E94570588234D
:101CA00029F080E80E94570581118BC180910201C3
:101CB000909103018436910524F0F0920301E092A3
:101CC0000201809102019091030197FF04C01092DC
:101CD000030110920201809100019091010184366C
:101CE000910524F0F0920101E09200018091000141
:101CF0009091010197FF04C0109201011092000120
:101D000084E00E9457058823E1F080915101909171
:101D10005201009719F00197A1F483C18091470106
:101D200090914801009709F06FC180914F01909107
:101D300050018A3091052CF40196909350018093C4
:101D40004F0188E00E945705882399F08091510146
:101D500090915201892B69F480914701909148013B
:101D6000823091050CF07EC10196909348018093DA
:101D7000470188E00E945705882399F0809151011E
:101D800090915201019769F480914501909146012B
:101D9000823091050CF06BC10196909346018093BF
:101DA000450185E0809373058091020190910301C4
:101DB0008A30910544F480E090E00E9462058091B1
:101DC0000201909103010E94620582E080937305F5
:101DD00041E050E06DE371E087E595E00E94E109A4
:101DE00085E08093730580910001909101018A3014
:101DF000910544F480E090E00E946205809100012A
:101E0000909101010E94620501E010E041E0B801FB
:101E10008FE390E00E94F10A0F5F1F4F003411051D
:101E2000A9F78091510190915201892B21F0EFE1A6
:101E3000F4E0DF012FC0E7EDF3E0DF012A1621F027
:101E40008C9181608D93FACF2E1621F08081826073
:101E50008193FACF8091470190914801009731F525
:101E600008E028E041E751E062E370E087E090E0BD
:101E70000E94980590926E0580926D05D093700532
:101E8000C0936F0582E08093730580914F0190911C
:101E9000500127C03A1621F08C9181608D93FACFC2
:101EA0003E16C1F2808182608193FACF0197D9F406
:101EB00008E028E049E651E062E370E087E090E066
:101EC0000E94980590926E0580926D05D0937005E2
:101ED000C0936F0582E08093730580914D019091CE
:101EE0004E010E9462058091450190914601009744
:101EF000D1F408E028E041E751E062E370E080E5DA
:101F000090E00E94980570926E0560926D05D093E6
:101F10007005C0936F0582E08093730580914B013B
:101F200090914C011BC00197D9F408E028E049E6E4
:101F300051E062E370E080E590E00E9498057092C5
:101F40006E0560926D05D0937005C0936F0582E0B9
:101F5000809373058091490190914A010E94620526
:101F60000E9438054114510409F400CE0E9400007B
:101F7000F0CD8091020190910301019690930301AD
:101F80008093020161CE8091000190910101019640
:101F9000909301018093000157CE809102019091AE
:101FA0000301019790930301809302015CCE80911D
:101FB000000190910101019790930101809300012C
:101FC00052CED0920301C0920201D0920101C09280
:101FD00000011092500110924F01B0924E01A09258
:101FE0004D0110924C0110924B0110924A01109237
:101FF000490181E090E09093480180934701B092BD
:102000004601A092450152CE019709F09ACE8091E7
:102010004D0190914E01019690934E0180934D0198
:1020200090CE8091450190914601009771F4809186
:102030004B0190914C018A3091050CF082CE0196B3
:1020400090934C0180934B017CCE019709F079CE9F
:102050008091490190914A01019690934A018093A1
:1020600049016FCE109248011092470182CE109222
:1020700046011092450195CEE1E8F5E01382128207
:1020800088EE93E0A0E0B0E084839583A683B783D5
:1020900084E191E0918380838FEF9FEF9587848720
:1020A000E7E5F5E0138212821186128620E123878C
:1020B00090878783108A118A128A138A148A86E28B
:1020C00091E09183808384E391E095838483178AF0
:1020D000168A118E108E81E0828F138E848F158E5A
:1020E0000895CF92DF92EF92FF920F931F93CF93B9
:1020F000DF931F92CDB7DEB7182F062FE42E862F61
:10210000880F8E5F99830E94AB0683E00E94AB0626
:10211000F12EC12E9981D92E8C2D8F19801798F40C
:10212000F601E7FE02C0849101C080810E94AB06E7
:10213000182F80E00E94AB068123FFEFCF1ADF0A41
:102140008111EACF01C081E00F90DF91CF911F9103
:102150000F91FF90EF90DF90CF9008950F931F9312
:10216000CF93DF938C0181E090E00E94F21080FF1A
:1021700031C08AE090E00E94F2109FEF980F9E3FDE
:1021800048F522E330E0D80157963C932E935697BA
:1021900028E330E059963C932E935897CBE0D0E05B
:1021A000D801ED91FC910190F081E02D682FC801DC
:1021B0000995CE010E94F2102196C131D10581F717
:1021C0000E94380588EE93E0DF91CF911F910F9127
:1021D0000C94BE0ADF91CF911F910F91089504973F
:1021E0000C94AE10F999FECF92BD81BDF89A992753
:1021F00080B50895262FF999FECF1FBA92BD81BDF3
:1022000020BD0FB6F894FA9AF99A0FBE0196089578
:10221000A1E21A2EAA1BBB1BFD010DC0AA1FBB1FEA
:10222000EE1FFF1FA217B307E407F50720F0A21B5C
:10223000B30BE40BF50B661F771F881F991F1A94C9
:1022400069F760957095809590959B01AC01BD01F3
:10225000CF010895EE0FFF1F0590F491E02D099432
:0E22600081E090E0F8940C943511F894FFCFD3
:10226E001400140000E1000000000000FFFFFFFF5B
:10227E0000000000E103B3040204F703480406045F
:10228E00240400000000090BE109330A320AAE10E3
:10229E00FCFF0000EF1000C1808100000020000054
:00000001FF
