:100000000C9480030C94A8030C94A8030C94A803EC
:100010000C94A8030C94A8030C94A8030C94A803B4
:100020000C94A8030C94A8030C9453070C94C507D4
:100030000C94A8030C94A8030C94A8030C94A80394
:100040000C94A8030C94A8030C94A8030C94A80384
:100050000C94A8030C94A8030C94A8030C943D0AD8
:100060000C94A8030C94A8030C94A8030C94A80364
:100070000C94A8030C94A8030C94A8030C94A80354
:100080000C94A8030C94A8030C94A8030C94A80344
:100090000C94A8030C94A8030C94A8030C94A80334
:1000A0000C94A8030C94A8030C94A803F0F89C8E5D
:1000B0008783878E9CF8F00000FEFF030303030391
:1000C000070EFCF80000FEFF0303030303070EFC0A
:1000D000F80000FFFF00000000000000FFFF00002C
:1000E000FEFF8383838383C7EE7C380000F8FC0E19
:1000F00007030303070EFCF800003F7FE0C0808089
:10010000C0E07F3FFFFF01010101010101FFFF008E
:1001100000FFFF0C0C0C0C1C3E77E3C100007FFFBE
:10012000C0C0C0C0C0E0703F1F00001F3F70E0C0F3
:10013000C0C0E0703F1F00007FFFC1C1C1C1C1E36B
:10014000773E1C00001F3F70E0C0C0C0E0703F1F42
:10015000000000000001FFFF01000000D5F08D1439
:10016000A1C881CFD9F1AF2000033F7FC4C47F3F36
:10017000031EF979EFEF79F91E60F8FC3E0E0703D4
:100180009E3EFCF860000103060408080406030311
:1001900000080B0002020201000904000001020233
:1001A00000000524001001052401010104240206B9
:1001B0000524060001070581031000400904010021
:1001C000020A000000070502024000000705830242
:1001D0004000000403090412010002EF0201404143
:1001E00023368000010102030141726475696E6F5C
:1001F000204C4C430041726475626F79000000002E
:1002000000003E5B4F5B3E3E6B4F6B3E1C3E7C3EB8
:100210001C183C7E3C181C577D571C1C5E7F5E1CC6
:1002200000183C1800FFE7C3E7FF0018241800FF80
:10023000E7DBE7FF30483A060E2629792926407F7A
:10024000050507407F05253F5A3CE73C5A7F3E1C89
:100250001C08081C1C3E7F14227F22145F5F005F75
:100260005F06097F017F006689956A606060606053
:1002700094A2FFA29408047E040810207E20100897
:10028000082A1C08081C2A08081E101010100C1E32
:100290000C1E0C30383E3830060E3E0E06000000B4
:1002A000000000005F00000007000700147F147FBB
:1002B00014242A7F2A1223130864623649562050D8
:1002C0000008070300001C2241000041221C002AF4
:1002D0001C7F1C2A08083E080800807030000808AF
:1002E000080808000060600020100804023E514920
:1002F000453E00427F400072494949462141494DEF
:10030000331814127F1027454545393C4A49493175
:1003100041211109073649494936464949291E00F4
:10032000001400000040340000000814224114149E
:10033000141414004122140802015909063E415DBB
:10034000594E7C1211127C7F494949363E41414148
:10035000227F4141413E7F494949417F09090901C5
:100360003E414151737F0808087F00417F410020D2
:1003700040413F017F081422417F404040407F02BE
:100380001C027F7F0408107F3E4141413E7F0909E6
:1003900009063E4151215E7F0919294626494949EE
:1003A0003203017F01033F4040403F1F2040201F98
:1003B0003F4038403F63140814630304780403612A
:1003C00059494D43007F414141020408102000413A
:1003D00041417F04020102044040404040000307C5
:1003E000080020545478407F28444438384444441A
:1003F00028384444287F385454541800087E090291
:1004000018A4A49C787F0804047800447D40002050
:1004100040403D007F1028440000417F40007C04A4
:100420007804787C080404783844444438FC182460
:10043000241818242418FC7C080404084854545434
:100440002404043F44243C4040207C1C2040201CC9
:100450003C4030403C44281028444C9090907C44D0
:1004600064544C440008364100000077000000410D
:1004700036080002010204023C2623263C1EA1A1EC
:1004800061123A4040207A385454555921555579D3
:100490004121545478412155547840205455794095
:1004A0000C1E5272123955555559395454545939F4
:1004B000555454580000457C410002457D420001DE
:1004C000457C40F0292429F0F0282528F07C54555B
:1004D00045002054547C547C0A097F4932494949DB
:1004E000323248484832324A4848303A4141217A0B
:1004F0003A42402078009DA0A07D39444444393DD3
:100500004040403D3C24FF2424487E4943662B2F35
:10051000FC2F2BFF0929F620C0887E0903205454A4
:1005200079410000447D413048484A3238404022F9
:100530007A007A0A0A727D0D19317D2629292F2821
:10054000262929292630484D40203808080808085F
:10055000080808382F10C8ACBA2F102834FA000049
:100560007B000008142A142222142A140895002261
:100570000095AA005500AAAA55AA55AA000000FF96
:1005800000101010FF00141414FF001010FF00FFE3
:100590001010F010F0141414FC001414F700FF00F5
:1005A00000FF00FF1414F404FC141417101F1010A3
:1005B0001F101F1414141F00101010F00000000072
:1005C0001F101010101F10101010F010000000FF6E
:1005D000101010101010101010FF10000000FF1469
:1005E0000000FF00FF00001F10170000FC04F414BF
:1005F000141710171414F404F40000FF00F7141477
:100600001414141414F700F7141414171410101FF2
:10061000101F141414F4141010F010F000001F1028
:100620001F0000001F14000000FC140000F010F078
:100630001010FF10FF141414FF141010101F0000EE
:100640000000F010FFFFFFFFFFF0F0F0F0F0FFFF01
:10065000FF0000000000FFFF0F0F0F0F0F38444492
:1006600038447C2A2A3E147E02020606027E027E5E
:100670000263554941633844443C04407E201E20B7
:1006800006027E020299A5E7A5991C2A492A1C4C5C
:100690007201724C304A4D4D303048784830BC625F
:1006A0005A463D3E494949007E0101017E2A2A2AD7
:1006B0002A2A44445F444440514A444040444A51F9
:1006C000400000FF0103E080FF000008086B6B089A
:1006D0003612362436060F090F06000018180000DF
:1006E000001010003040FF0101001F01011E001921
:1006F0001D1712003C3C3C3C000000000000DC11D7
:1007000011241FBECFEFDAE0DEBFCDBF11E0A0E0C5
:10071000B1E0E8E9F5E202C005900D92A03DB10715
:10072000D9F726E0A0EDB1E001C01D92A236B207D4
:10073000E1F713E0C0E8D3E004C02197FE010E9476
:10074000BF12CF37D107C9F70E94E10B0C94CA1230
:100750000C9400002091DF01211103C08FEF9FEF67
:1007600008955FB7F89422E02093E9002091F20009
:1007700030E01216130614F421E030E0422FFC01A1
:1007800084E6415038F028988093DE019091F10082
:100790009193F7CF2115310521F08091F200882344
:1007A00019F05FBFC90108958BE68093E800F9CF87
:1007B0002FB7F89483E08093E9009091E800892FA7
:1007C000807295FF04C09091F20080E4891B2FBFD6
:1007D0000895CF93DF931F92CDB7DEB76983DC0115
:1007E000ED91FC910280F381E02D41E050E0BE01EB
:1007F0006F5F7F4F09950F90DF91CF91089583E050
:100800008093E9008091F200882319F08AE38093B5
:10081000E80008950E94D80390E00895CF93DF93F5
:100820001F92CDB7DEB7FC018485958597FD05C085
:100830002FEF3FEF358724870BC0CE0101960E9432
:10084000AA03019719F4898190E002C08FEF9FEF0E
:100850000F90DF91CF9108950F931F93CF93DF9364
:100860001F92CDB7DEB78C01FC018485958597FF7B
:100870000EC0CE0101960E94AA03019719F4898146
:1008800090E002C08FEF9FEFF80195878487F80111
:10089000848595850F90DF91CF911F910F910895D9
:1008A000FC018485958597FD0BC09FB7F89482E085
:1008B0008093E9008091F2009FBF90E00196089537
:1008C0009FB7F89482E08093E9008091F2009FBF87
:1008D00090E008958F929F92AF92BF92CF92DF9255
:1008E000EF92FF920F931F93CF93DF936C017B01E5
:1008F0008A0180910F01882309F45CC08091DF0197
:10090000882309F457C08091DD0180FF05C08091E4
:10091000E00082608093E000E801B12C8AEFA82E0D
:1009200093E0892E2AE3922E209711F4BB20D9F16F
:100930000E94D80381110AC0AA94AA20D9F161E0CB
:1009400070E080E090E00E94030AEECF282F30E0B4
:10095000C217D3070CF48C2F9FB7F8948092E9004C
:100960002091E80025FF1DC0282F30E0C21BD30BCB
:10097000F701815020F041914093F100FACFE20E4F
:10098000F31EBB2019F09092E8000AC08091E800A5
:1009900085FD07C09092E800BB24B394209709F02E
:1009A000B12C9FBFC1CF5D9884E68093DC01101607
:1009B000110644F081E090E0F6019383828380E0A9
:1009C00090E001C0C801DF91CF911F910F91FF907E
:1009D000EF90DF90CF90BF90AF909F908F90089551
:1009E0002091EA05282329F49091E905982381E0D4
:1009F00009F480E00895009769F0FC01019000205F
:100A0000E9F73197AF01481B590BBC0180EE95E027
:100A10000C94870A80E090E008958F929F92AF92A5
:100A2000BF92CF92DF92EF92FF920F931F93CF93DB
:100A3000DF93CDB7DEB7A1970FB6F894DEBF0FBE38
:100A4000CDBF6C01990FEE08FF08F7FE2BC06DE2D9
:100A500080EE95E00E94DF0A8C0122273327A9014E
:100A60002C193D094E095F0919A2CE0181967C011E
:100A70009AE0892E912CA12CB12CCA01B901A501B3
:100A800094010E949D12605DF70162937F01211520
:100A900031054105510589F7CF010E94FB04800F04
:100AA000911F1DC0A701960119A28E010F5D1F4F56
:100AB0008AE0C82ED12CE12CF12CCA01B901A70182
:100AC00096010E949D12605DF80162938F012115CD
:100AD00031054105510589F7CF010E94FB04A1961C
:100AE0000FB6F894DEBF0FBECDBFDF91CF911F913F
:100AF0000F91FF90EF90DF90CF90BF90AF909F90BD
:100B00008F900895E0EEF1E0A0E0B8E000800EBC28
:100B10008111012C1197A0FDFDCF0192B9F70DB401
:100B200008952F923F924F925F926F927F928F9291
:100B30009F92AF92BF92CF92DF92EF92FF920F936C
:100B40001F93CF93DF93CDB7DEB72A970FB6F894F4
:100B5000DEBF0FBECDBF5A01822E912C9401280F0B
:100B6000391F37FDBAC0803891050CF0B6C09B0123
:100B7000200F311D37FDB1C0603471050CF0ADC0E0
:100B8000AB0177FF04C044275527461B570B47701E
:100B900055279B0177FF02C0295F3F4FE3E0359562
:100BA0002795EA95E1F777FF08C02150310968E001
:100BB00070E0FB01E41BF50BAF01202E2694269478
:100BC0002694312C077019F0FFEF2F1A3F0A220EDE
:100BD000331E39017694762C662477946794680ED8
:100BE000791EE12CF12C00E010E0B30160587F4F3A
:100BF0007A87698768E070E0FB01E41BF50BFA83F4
:100C0000E9832216330609F468C02830310509F457
:100C100064C02F3FFFEF3F070CF454C0E985FA850D
:100C2000E00FF11FBF0160527E4F7C836B83D801C0
:100C3000A60DB71DA052BE4F6C0160E070E06815B4
:100C400079050CF03FC0E0E8CE16D10409F43AC0B3
:100C5000D7FC2CC02F3FFFEF3F0709F43AC0FB0140
:100C6000EE0DFF1DEA0DFB1DE491042E01C0EE0FF9
:100C70000A94EAF7FC91EF2BEC9341155105B1F082
:100C80002730310599F0FB01EE0DFF1DEA0DFB1D2C
:100C9000E4914E2E512C098002C0559447940A9439
:100CA000E2F7EB81FC815080452840826F5F7F4FE7
:100CB000EB81FC813196FC83EB83FFEFCF1ADF0AD7
:100CC0001196BDCF2F5F3F4F00581F4FE80CF91C06
:100CD00098CF41155105B9F6E9CF2A960FB6F89489
:100CE000DEBF0FBECDBFDF91CF911F910F91FF905F
:100CF000EF90DF90CF90BF90AF909F908F907F90BC
:100D00006F905F904F903F902F9008958091FB05DA
:100D100081110DC082E08093F70584E08093F8058F
:100D20001092FA051092F90581E08093FB0587EF98
:100D300095E0089540915F065091600620915D0610
:100D400030915E0642175307B4F49091E800957015
:100D5000E1F39091E80092FD19C08093F100809139
:100D60005F069091600601968F739927892B19F47D
:100D70008EEF8093E80080915F0690916006019667
:100D80009093600680935F0681E0089580E0089567
:100D9000DF92EF92FF920F931F93CF93DF93D82EA2
:100DA0008A017B01E40EF51EEB01CE15DF0571F023
:100DB000D7FE03C0FE01849101C088810E949A067B
:100DC00021968111F2CF8FEF9FEF01C0C801DF9113
:100DD000CF911F910F91FF90EF90DF900895615098
:100DE00030F02091F100FC0120830196F8CF289883
:100DF00084E68093DE0108953FB7F8948091590608
:100E000090915A06A0915B06B0915C0626B5A89B0E
:100E100005C02F3F19F00196A11DB11D3FBFBA2F8C
:100E2000A92F982F8827820F911DA11DB11DBC01EC
:100E3000CD0142E0660F771F881F991F4A95D1F7B1
:100E400008950F931F93CF93DF931F92CDB7DEB713
:100E500082E0898342E450E061E971E080E80E9429
:100E6000C8060E948606DC0112960D911C9113970C
:100E70000115110589F0D801ED91FC910280F381F3
:100E8000E02DBE016F5F7F4FC801099597FD04C03B
:100E9000F80100851185ECCF89810F90DF91CF910A
:100EA0001F910F9108951F920F920FB60F92112468
:100EB0008F939F938091E1009091E100937F9093B5
:100EC000E10083FF0FC01092E90091E09093EB00E6
:100ED0001092EC0092E39093ED001092DF0198E005
:100EE0009093F00082FF20C093E09093E9009091EE
:100EF000F200992319F09AE39093E8009091DC01B5
:100F0000992339F09091DC0191509093DC01992361
:100F100089F19091DE01992339F09091DE01915091
:100F20009093DE01992341F184FF10C08091E2008B
:100F30008E7E81608093E2008091E1008F7E8093BD
:100F4000E1008091DD018E7E806111C080FF16C0BE
:100F50008091E2008E7E80618093E2008091E100CA
:100F60008E7E8093E1008091DD018E7E8160809392
:100F7000DD0104C05D9ACDCF289AD6CF9F918F9185
:100F80000F900FBE0F901F9018951F920F920FB6E3
:100F90000F921124CF92DF92EF92FF920F931F9343
:100FA0002F933F934F935F936F937F938F939F9371
:100FB000AF93BF93EF93FF93CF93DF93CDB7DEB79C
:100FC0006C97DEBFCDBF1092E9008091E80083FFEF
:100FD000FBC168E0CE0145960E94EF0682EF809348
:100FE000E8008D8987FF05C09091E80090FFFCCF55
:100FF00003C09EEF9093E800982F907609F0C6C04A
:101000009E894F89588D2F89F88C91110CC080389A
:1010100029F4809157068093F10002C01092F100EC
:101020001092F10045C1913051F4811141C141301C
:10103000510509F03DC1809157068D7F0BC093305B
:1010400061F4811135C14130510509F031C1809100
:1010500057068260809357062BC1953049F48091E2
:10106000E80080FFFCCF822F80688093E30020C1DE
:10107000963009F05EC00B8D1C8D22E01092E900C5
:101080001092600610925F06F21232C010925E0655
:1010900010925D060E94210799E0BE016F5F7F4FAD
:1010A000DB01E92F1D92EA95E9F79983FA8291E035
:1010B0009E8390EA98879AEF998720915F063091F6
:1010C0006006275F3F4F3C832B838D831092E9009E
:1010D0001092600610925F0610935E0600935D0604
:1010E00049E050E080E00E94C8060E942107E0C06D
:1010F00010935E0600935D060E948606DC01129640
:101100000D911C9113970115110509F4BBC0D8016D
:10111000ED91FC910480F581E02DBE016B5E7F4F67
:10112000C8010995009709F0C7C0F801008511852D
:10113000EACF973009F445C1983021F481E08093DB
:10114000F100B6C0993009F0B3C0837009F039C11D
:10115000EBE3F1E081E031E096E32081211109C069
:101160008EE78093EA001092EA008F898093DF0176
:101170009FC08093E9003093EB0021912093EC0015
:101180009093ED008F5F873041F7EACF8B8D9C8D78
:101190001092E9001092600610925F0690935E062E
:1011A00080935D06898D811153C08E899D89913A06
:1011B00049F4813209F005C147E050E068E071E090
:1011C00080E0BBC0913209F0FCC0833269F48F89A2
:1011D000988DA0E0B0E08093100190931101A0934E
:1011E0001201B093130164C0803269F48091E80069
:1011F00082FFFCCF67E088E091E00E94EF068BEF72
:101200008093E80055C0823209F052C08F898093E4
:101210000F01EEEFFFE7859194918B3F9C4D19F004
:10122000E0E0F8E002C0EEEFFAE080910801909172
:101230000901A0910A01B0910B01803B9440A105E6
:10124000B10509F09EC080910F0180FF79C099C05F
:101250000E948606FC01028113810115110509F423
:10126000B0C0D801ED91FC910190F081E02DBE015C
:101270006B5E7F4FC801099581111AC0F801008586
:101280001185EBCFF1E0FF1609F44EC0F3E0FF1239
:1012900098C08F89882309F44AC0823089F440E8D5
:1012A00067E085EF91E00E940D12882309F489C060
:1012B0008EEF8093E80088C018161906CCF381C021
:1012C000813029F440E86BE089EE91E0ECCF833087
:1012D00009F077C00E948606DC011296ED90FC9022
:1012E00013978E010F5F1F4F6801E114F10479F02D
:1012F000D701ED91FC910680F781E02DB801C7017F
:101300000995080F111DF701E084F184EECFD80193
:101310001C92F60101900020E9F73197BF016C198A
:101320007D0940E0C601BFCF67ED71E002C063ED0B
:1013300071E0FB01449150E080E80E94C806B8CFFC
:10134000EE3F2AE0F20751F0808191818737A7E7CD
:101350009A0721F09093FF0A8093FE0A87E797E7A8
:101360009183808380916000809361069BE088E197
:101370000FB6F894A895809360000FBE909360001C
:1013800097CF808191818737974709F091CFA895B2
:1013900080916000886180936000809161068093F5
:1013A0006000EE3FBAE0FB0739F08091FE0A9091B1
:1013B000FF0A918380837CCF1092FF0A1092FE0A6D
:1013C00077CF81E28093EB006C960FB6F894DEBF86
:1013D0000FBECDBFDF91CF91FF91EF91BF91AF9144
:1013E0009F918F917F916F915F914F913F912F913D
:1013F0001F910F91FF90EF90DF90CF900F900FBE55
:101400000F901F9018958F929F92AF92BF92CF929C
:10141000DF92EF92FF926B017C010E94FC064B0170
:101420005C01C114D104E104F104F1F00E94FC0656
:10143000DC01CB0188199909AA09BB09883E9340B0
:10144000A105B10570F321E0C21AD108E108F10845
:1014500088EE880E83E0981EA11CB11CC114D10433
:10146000E104F10419F7DDCFFF90EF90DF90CF900A
:10147000BF90AF909F908F9008951F920F920FB6DC
:101480000F9211242F933F938F939F93AF93BF930A
:101490008091530690915406A0915506B09156063E
:1014A0003091580623E0230F2D3720F40196A11D1B
:1014B000B11D05C026E8230F0296A11DB11D209382
:1014C00058068093530690935406A0935506B09304
:1014D00056068091590690915A06A0915B06B091EC
:1014E0005C060196A11DB11D8093590690935A0682
:1014F000A0935B06B0935C06BF91AF919F918F91D3
:101500003F912F910F900FBE0F901F901895CF9283
:10151000DF92EF92FF920F931F93CF93DF936C01B3
:101520007A018B01C0E0D0E0CE15DF0581F0D80153
:101530006D918D01D601ED91FC910190F081E02D2E
:10154000C6010995892B11F02196EECF7E01C701C6
:10155000DF91CF911F910F91FF90EF90DF90CF908F
:1015600008950895089580E090E008950E94C512BE
:101570002D9A0895BC0180E090E00C94030A8FB18D
:101580008095807F669B88601C9B846008950C9486
:10159000871290E1282F81E061FD84E060FD880FD3
:1015A00062FD8295687F969FD0011124A20FA05200
:1015B000BE4F9C91982B40FF98279C9308952F92A3
:1015C0003F924F925F926F927F928F929F92AF92D3
:1015D000BF92CF92DF92EF92FF920F931F93CF9320
:1015E000DF93CDB7DEB727970FB6F894DEBF0FBEF7
:1015F000CDBF9F838E836A30A1F4DC0155962C9178
:10160000559751968D919C915297B8E02B9F800DE4
:10161000911D1124EE81FF81928B818B108A178698
:10162000B5C06D3009F4B2C0AE81BF811F960D9177
:101630001C91509700381105BCF0EE81FF8125897F
:10164000422F50E087859089F6E02F9F800D911DF5
:101650001124AE81BF8150969C938E931F9756960E
:101660002C9121117DC092C0EE81FF8181889288EA
:10167000F0E48F1691040CF7AE81BF8155963C9033
:10168000C801B5E03B9E800D911D11241816190666
:10169000A4F6432C512CC401E8E03E9E800D911D20
:1016A0001124181619064CF6AE81BF815496BC91D0
:1016B000BC83EE81FF81F389FD8325E0629FB00149
:1016C0001124CB0183509E4F3C011982F3012490D9
:1016D000F981F53009F4212C540128E02B8320FEF8
:1016E00003C03D813A8302C08C818A839A81911123
:1016F00004C0AC81BD81AB17F9F078018E2D801B41
:101700008315D0F465018C2D8A19831588F4E0E8DF
:10171000EE16F10448F4F0E4CF16D10428F44A811F
:10172000B601C7010E94C90A2FEFC21AD20AEBCF35
:101730003FEFE31AF30AE2CF26948B8181508B832B
:10174000A40CB51C8111CBCF99819F5F9983040DA7
:10175000151DD30111963D01963009F0B7CF6DCF1D
:101760006AEF64039001659F300D112420583F4FAC
:10177000281739075CF4AE81BF81ED91FC91119778
:101780000190F081E02D6AE0CD01099581E090E0C3
:1017900027960FB6F894DEBF0FBECDBFDF91CF9175
:1017A0001F910F91FF90EF90DF90CF90BF90AF907F
:1017B0009F908F907F906F905F904F903F902F9071
:1017C0000895789484B5826084BD84B5816084BDB9
:1017D00085B5826085BD85B5816085BD80916E00CF
:1017E000816080936E001092810080918100826000
:1017F000809381008091810081608093810080913D
:10180000800081608093800080919100826080934D
:10181000910080919100816080939100809190006F
:101820008160809390008091C10084608093C100AA
:101830008091C10082608093C1008091C10081606D
:101840008093C1008091C30081608093C300809128
:10185000C00082608093C0008091C200816080934C
:10186000C20080917A00846080937A0080917A002F
:10187000826080937A0080917A00816080937A0000
:1018800080917A00806880937A001092DF01109234
:1018900057061092DD018091D70081608093D700B8
:1018A00080EA8093D80089B5806189BD89B582605E
:1018B00089BD09B400FEFDCF61E070E080E090E0FA
:1018C0000E94030A8091D8008F7C80618093D800A9
:1018D0008091E000807F8093E0008091E1008E7E27
:1018E0008093E1008DE08093E200559A209A81EC8C
:1018F00080937C0085B1806F85B984B1877E84B97F
:1019000084B1876E84B95E9A5F988AB1806D8AB916
:10191000769A6E9881B3806F81BB899880B38D7001
:1019200080BB80E58CBD81E08DBD85E090E00E94AC
:10193000BA0A5F9A85E090E00E94BA0A5E985C98C5
:10194000ECE5F1E089E691E024912EBD00000DB4B4
:1019500007FEFDCF31968E179F07B1F75C9A81E89D
:10196000809364008091650081608093650080E0D1
:101970000E9482050E94BF0A87FF24C05C9885EA06
:101980008EBD00000DB407FEFDCF5C9A2E982F98F7
:101990002D988091640080628093640081E083BF11
:1019A000889513BEFCCF2D980E94BF0A8478843896
:1019B00071F00E94BF0A8471843131F188EC90E0AB
:1019C0000E94BA0A0E94BF0A82FDEDCF3AC00E946F
:1019D000B80A88EC90E00E94BA0A2F9882E090E062
:1019E0000E9487128F3F29F06FEF82E090E00E9403
:1019F0008F1284EF91E00E94BA0A2F9A0E94BF0AC8
:101A000084788438D9F3D5CF0E94B80A88EC90E066
:101A10000E94BA0A2E9882E090E00E9487128823E2
:101A200029F060E082E090E00E948F1284EF91E064
:101A30000E94BA0A2E9A0E94BF0A84718431D9F397
:101A4000BDCF0E94B80A82E090E00E94C70A8823B6
:101A500019F03E9A3F9A02C03E983F9881E090E08C
:101A60000E94C70A182F147081FF39C011112E98D7
:101A7000C0EFDFEF0E94BF0A86FF05C02E9A2F9AA3
:101A80000E94B80A2CC0112329F0C430D10511F4EA
:101A90002E9A2F9881E00E94820500E128E54CEA09
:101AA00050E0BE0184E190E00E94910580E00E9438
:101AB00082058FE090E00E94BA0A2196C931D105D3
:101AC000C9F6112311F02F9A2D9880E991E00E9418
:101AD000BA0A0E94B80A80EE95E00E94421282E3A0
:101AE00090E00E94BA0A0E94BF0A8111F8CF81E2F9
:101AF0008093EB0549E1842E912C54E1A52EB12C65
:101B000067E6662E712CCFE2D0E0EE24EA94FE2C3C
:101B1000CC24C394D12C2FE5222E312C36E1432E38
:101B2000512C8FB7F8944091530650915406609110
:101B30005506709156068FBF8091EC05942F981B27
:101B40008091ED05882329F09093EE051092ED0524
:101B50006AC32091EB05921748F49F5F921708F033
:101B600062C381E083BF889513BE5DC391E090930B
:101B7000ED054093EC052091E7053091E8052F5FD6
:101B80003F4F3093E8052093E705E0EEF1E0811147
:101B90008FEF002481938193819381930394D1F7F4
:101BA0001092F2051092F1051092F0051092EF05D7
:101BB0008091E9058093EA050E94BF0A8093E905B8
:101BC0008091DA019091DB01892B09F047C081E413
:101BD00091E00E94FB040CE02CE049E751E060E05A
:101BE00070E080E090E00E94910585E190E09093A4
:101BF000F0058093EF0584E390E09093F2058093E5
:101C0000F10581EB91E00E94FB0480E20E94F00468
:101C1000882329F0D092DB01C092DA011FC080E452
:101C20000E94F004882349F083E290E0909307013A
:101C30008093060182E090E00DC080E80E94F004ED
:101C4000882361F083E190E090930701809306017F
:101C500083E090E09093DB018093DA018091DA01D8
:101C60009091DB01019709F0A7C180E80E94F00480
:101C70008823C9F08091D8019091D901009749F447
:101C80008091060190910701833691050CF4D3C22F
:101C90000AC0019741F480910401909105018336B7
:101CA00091050CF4CEC280E10E94F0048823C9F0B3
:101CB0008091D8019091D901009749F48091060153
:101CC00090910701181619060CF4C1C20AC00197B9
:101CD00041F48091040190910501181619060CF445
:101CE000BCC280E20E94F004882321F01092D90146
:101CF0001092D80180E40E94F004882321F0D09251
:101D0000D901C092D80188E00E94F004882351F0E4
:101D100084E00E94F004882329F080E80E94F00407
:101D20008111A1C284E00E94F0048823E1F0809137
:101D3000D8019091D901009719F00197A1F4C5C27B
:101D40008091020190910301009709F0ADC280914A
:101D5000D6019091D7018A3091052CF40196909389
:101D6000D7018093D60188E00E94F004882399F07F
:101D70008091D8019091D901892B69F48091020159
:101D800090910301823091050CF0C4C201969093AA
:101D900003018093020188E00E94F004882399F0F7
:101DA0008091D8019091D901019769F48091000147
:101DB00090910101823091050CF0B1C2019690938F
:101DC00001018093000185E08093F5058091060173
:101DD000909107018A30910544F480E090E00E94E0
:101DE0000D0580910601909107010E940D0582E08A
:101DF0008093F50584EC91E00E94FB0485E08093DC
:101E0000F50580910401909105018A30910544F413
:101E100080E090E00E940D05809104019091050101
:101E20000E940D0501E010E041E0B80180E490E07F
:101E30000E94C90A0F5F1F4F00341105A9F701E086
:101E400010E041E0B8018FE390E00E94C90A0F5F03
:101E50001F4F00341105A9F701E010E041E0B8017F
:101E60008EE390E00E94C90A0F5F1F4F00341105F6
:101E7000A9F78091D8019091D901892B29F0E8EA3E
:101E8000F4E0DF0198E311C0E0E6F4E0DF0198E35D
:101E9000915021F08C9181608D93FACF98E391500D
:101EA00089F0808182608193FACF915021F08C91EA
:101EB00081608D93FACF98E3915021F08081826008
:101EC0008193FACF80910201909103010097D1F4A0
:101ED00008E028E041E751E062E370E087E090E04D
:101EE0000E9491055092F0054092EF05D093F205C3
:101EF000C093F10582E08093F5058091D601909121
:101F0000D7011BC00197D9F408E028E049E651E069
:101F100062E370E087E090E00E9491055092F00546
:101F20004092EF05D093F205C093F10582E08093D3
:101F3000F5058091D4019091D5010E940D05809105
:101F40000001909101010097D1F408E028E041E7F9
:101F500051E062E370E080E590E00E9491053092EC
:101F6000F0052092EF05D093F205C093F10582E0D1
:101F70008093F5058091D2019091D3011BC0019708
:101F8000D9F408E028E049E651E062E370E080E53A
:101F900090E00E9491053092F0052092EF05D093D9
:101FA000F205C093F10582E08093F5058091D001A0
:101FB0009091D1010E940D058091DA019091DB0191
:101FC000029709F0C1C080E80E94F004882349F01C
:101FD0008091060190910701873E23E092070CF45F
:101FE000A3C180E10E94F004882341F080910601A2
:101FF00090910701181619060CF49CC180E40E9408
:10200000F004882349F08091060190910701873EF2
:1020100023E092070CF494C180E20E94F00488232C
:1020200041F08091060190910701181619060CF4F1
:102030008DC188E00E94F004882351F084E00E9462
:10204000F004882329F080E80E94F004811184C103
:1020500088E00E94F004882361F08091D60190917D
:10206000D7018A3091052CF401969093D701809383
:10207000D60184E00E94F004882361F08091D401AD
:102080009091D501833691052CF401969093D5015A
:102090008093D40186EC91E00E94FB0485E080935C
:1020A000F5051092F0051092EF059092F2058092DE
:1020B000F10580910601909107018A30910544F461
:1020C00080E090E00E940D0580910601909107014B
:1020D0000E940D0512E01093F50584EC91E00E943A
:1020E000FB0408E028E041E751E06CE170E08BE59B
:1020F00090E00E9491057092F0056092EF05909239
:10210000F2058092F1051093F5058091D60190912A
:10211000D7010E940D0528E049E651E062E370E036
:102120008BE590E00E9491057092F0056092EF05BA
:10213000D093F205C093F1051093F5058091D40179
:102140009091D5010E940D058091DA019091DB01FB
:10215000039709F065C080E80E94F004882349F0E5
:102160008091060190910701873E23E092070CF4CD
:1021700006C180E10E94F004882341F080910601AD
:1021800090910701181619060CF4FFC080E40E9414
:10219000F004882349F08091060190910701833E65
:1021A00023E092070CF4F7C080E20E94F004882339
:1021B00041F08091060190910701863091050CF065
:1021C000F0C088E00E94F004882329F084E00E9497
:1021D000F0048111ECC082E08093F50586EC91E07B
:1021E0000E94FB0485E08093F50587E290E09093E0
:1021F000F0058093EF059092F2058092F1058091B1
:102200000601909107018A30910544F480E090E046
:102210000E940D0580910601909107010E940D0515
:1022200080E00E94820580E090E0892B09F479CC5F
:102230000E9400006ACC01969093070180930601EA
:1022400032CD019690930501809304012CCD019726
:10225000909307018093060144CD01979093050167
:10226000809304013ECDB0920701A0920601B09286
:102270000501A09204011092D7011092D601F092AC
:10228000D501E092D4011092D3011092D2011092A4
:10229000D1011092D001D0920301C0920201F092BC
:1022A0000101E09200013ECD019709F05CCD8091E3
:1022B000D4019091D501833691050CF054CD01964F
:1022C0009093D5018093D4014ECD809100019091DF
:1022D0000101009771F48091D2019091D3018A306D
:1022E00091050CF040CD01969093D3018093D201DB
:1022F0003ACD019709F037CD8091D0019091D1016D
:10230000833691050CF02FCD01969093D1018093E7
:10231000D00129CD10920301109202013CCD109200
:102320000101109200014FCD019690930701809317
:10233000060157CE019790930701809306015ECE68
:102340000596909307018093060166CE05979093BA
:102350000701809306016DCE88E290E0909307011B
:1023600080930601F092D501E092D401F092D7015A
:10237000E092D601D0920301C092020169CE01968B
:102380009093070180930601F4CE01979093070183
:1023900080930601FBCE059690930701809306017A
:1023A00003CF059790930701809306010ACFB0925F
:1023B0000701A09206010FCFE3E0F6E0138212823C
:1023C00088EE93E0A0E0B0E084839583A683B78392
:1023D00088E191E0918380838FEF9FEF95878487D9
:1023E000E0EEF5E0138212821186128680E1838787
:1023F0001086178215868AE291E09183808388E3B4
:1024000091E095838483108A1786128A118A81E06D
:10241000838B148A858B168A0895DF92EF92FF9240
:102420000F931F93CF93DF93D82EF92EE42E062F10
:1024300010E0C8010196880F0E949A0683E00E946E
:102440009A06CD2DDF2D0C0F1D1FC017D10789F067
:10245000E7FE03C0FE01849101C088810E949A06B4
:10246000F82E80E00E949A068F2121968111EDCFEF
:1024700001C081E0DF91CF911F910F91FF90EF900C
:10248000DF9008950F931F93CF93DF938C0181E02A
:1024900090E00E94C70A80FF32C08AE090E00E946C
:1024A000C70A9FEF980F9E3F50F522E330E0D80116
:1024B00050963C932E931F9728E330E052963C931E
:1024C0002E935197CBE0D0E0D801ED91FC91019093
:1024D000F081E02D682FC8010995CE010E94C70A3E
:1024E0002196C131D10581F780E00E94820588EEF6
:1024F00093E0DF91CF911F910F910C94BA0ADF9175
:10250000CF911F910F91089504970C944212F9995D
:10251000FECF92BD81BDF89A992780B50895262FE8
:10252000F999FECF1FBA92BD81BD20BD0FB6F894B8
:10253000FA9AF99A0FBE01960895A1E21A2EAA1BE3
:10254000BB1BFD010DC0AA1FBB1FEE1FFF1FA21763
:10255000B307E407F50720F0A21BB30BE40BF50B60
:10256000661F771F881F991F1A9469F760957095E9
:10257000809590959B01AC01BD01CF010895EE0FB0
:10258000FF1F0590F491E02D099481E090E0F8940C
:082590000C94CA12F894FFCF6D
:10259800020002001400140000E100000000000026
:1025A800FFFFFFFF00000000E9036A040A04FF03BD
:1025B80050040E042C0400000000DF0A870AB30A46
:1025C800B20A4212FCFF0000841200C180810000A0
:1025D800002020204D5447204C49464520434F5564
:1025E8004E5445520A2020202D2D2D2D2D2D2D2DD8
:1025F8002D2D2D2D2D2D2D2D0A53656C65637420E1
:1026080061206D6F64652E0A4C20202D20322050E9
:102618006C617965727320283230290A5220202D86
:1026280020436F6D6D616E64657220283430290A0D
:102638005550202D2053696D706C65202832302943
:10264800006D61646520627920486F6F6665644536
:1026580061722E002000506C617965722031000093
:00000001FF
